:100000000C9446000C945D000C945D000C945D0013
:100010000C945D000C945D000C945D000C945D00EC
:100020000C945D000C945D000C945D000C945D00DC
:100030000C945D000C945D000C945D000C945D00CC
:100040000C945D000C945D000C945D000C945D00BC
:100050000C945D000C945D000C945D000C945D00AC
:100060000C945D000C945D000C945D000C945D009C
:100070000C945D000C945D000C945D000C945D008C
:100080000C945D000C945D000C945D0011241FBE67
:10009000CFEFD0E1DEBFCDBF11E0A0E0B1E0E8E5F9
:1000A000F2E000E00BBF02C007900D92A030B10754
:1000B000D9F70E945F000C942A010C9400005F9213
:1000C0006F927F928F929F92AF92BF92CF92DF9268
:1000D000EF92FF920F931F9311BA8FEF84BB87BBF0
:1000E0008ABB4FEFACE372E429E130E068E4562EBE
:1000F00054E4D52E9EE7E92E80E4682E02E6F02E29
:1001000062E51CE4812E54E2BAE57B2E1EE008E095
:10011000FEE29F2EBAE4E2E3BE2E92E0A92E82E137
:10012000C82E809B11C041BBABBB78BB75BBA2BBCB
:1001300080E593ECF9013197F1F70197D9F71BBAF4
:1001400018BA15BA12BA11BA819B11C041BB5BBA79
:10015000D8BAE5BA62BA80E593ECF9013197F1F7C4
:100160000197D9F71BBA18BA15BA12BA11BA829BFD
:1001700011C041BBDBBAF8BA65BB82BA80E593EC2B
:10018000F9013197F1F70197D9F71BBA18BA15BAE7
:1001900012BA11BA839B11C041BB5BBB78BB75BA65
:1001A00052BB80E593ECF9013197F1F70197D9F74C
:1001B0001BBA18BA15BA12BA11BA849B11C041BB46
:1001C0001BBB08BB05BBE2BA80E593ECF901319794
:1001D000F1F70197D9F71BBA18BA15BA12BA11BAC2
:1001E000859B11C041BB9BBAB8BBB5BBB2BA80E519
:1001F00093ECF9013197F1F70197D9F71BBA18BAC7
:1002000015BA12BA11BA869B11C041BBABBB68BB11
:1002100065BB52BB80E593ECF9013197F1F701978B
:10022000D9F71BBA18BA15BA12BA11BA879B79CF87
:1002300041BBABBAF8BAC5BA12BB80E593ECF90181
:100240003197F1F70197D9F71BBA18BA15BA12BA54
:0802500011BA67CFF894FFCF4B
:00000001FF
