:100000000C942A000C9434000C9434000C943400AA
:100010000C9434000C9434000C9434000C94340090
:100020000C9434000C9434000C9434000C94340080
:100030000C9434000C9434000C9434000C94340070
:100040000C9434000C9434000C9434000C94340060
:100050000C94340011241FBECFE5D4E0DEBFCDBF29
:100060000E9436000C9470000C9400008FEF81BB4E
:1000700084BB87BB8ABB7FEF29E130E041E060E1D0
:100080005CE27BBB80E593ECF9013197F1F70197D6
:10009000D9F71BBA4BBB48BB45BB42BB80E593ECD1
:1000A000F9013197F1F70197D9F71BBA18BA15BAC8
:1000B00012BA8FEF9FEFF9013197F1F70197D9F756
:1000C0006BBB58BB55BB62BB8FEF9FEFF9013197FC
:1000D000F1F70197D9F71BBA18BA15BA12BAD1CFEE
:0400E000F894FFCFC2
:00000001FF
