:100000000C942A000C9434000C9434000C943400AA
:100010000C9434000C9434000C9434000C94340090
:100020000C9434000C9434000C9434000C94340080
:100030000C9434000C9434000C9434000C94340070
:100040000C9434000C9434000C9434000C94340060
:100050000C94340011241FBECFE5D4E0DEBFCDBF29
:100060000E9436000C944B000C9400008FEF81BB73
:1000700084BB50E44FED29E130E057B946B984B173
:1000800082BB85B185BB80E197E2F9013197F1F739
:0A0090000197D9F7F2CFF894FFCFE3
:00000001FF
